{
  "_format": "hh-sol-artifact-1",
  "contractName": "WavePortal",
  "sourceName": "contracts/WavePortal.sol",
  "abi": [
    {
      "inputs": [],
      "stateMutability": "nonpayable",
      "type": "constructor"
    },
    {
      "inputs": [
        {
          "internalType": "string",
          "name": "text",
          "type": "string"
        }
      ],
      "name": "createInput",
      "outputs": [],
      "stateMutability": "nonpayable",
      "type": "function"
    },
    {
      "inputs": [],
      "name": "getInputs",
      "outputs": [
        {
          "components": [
            {
              "internalType": "string",
              "name": "text",
              "type": "string"
            },
            {
              "internalType": "address",
              "name": "sender",
              "type": "address"
            }
          ],
          "internalType": "struct WavePortal.Input[]",
          "name": "",
          "type": "tuple[]"
        }
      ],
      "stateMutability": "view",
      "type": "function"
    },
    {
      "inputs": [],
      "name": "getTotalInputs",
      "outputs": [
        {
          "internalType": "uint256",
          "name": "",
          "type": "uint256"
        }
      ],
      "stateMutability": "view",
      "type": "function"
    }
  ],
  "bytecode": "0x608060405234801561001057600080fd5b506100596040518060400160405280600e81526020017f48656c6c6f20576f726c6420784400000000000000000000000000000000000081525061005e60201b6103341760201c565b6101e1565b6100fa81604051602401610072919061015f565b6040516020818303038152906040527f41304fac000000000000000000000000000000000000000000000000000000007bffffffffffffffffffffffffffffffffffffffffffffffffffffffff19166020820180517bffffffffffffffffffffffffffffffffffffffffffffffffffffffff83818316178352505050506100fd60201b60201c565b50565b60008151905060006a636f6e736f6c652e6c6f679050602083016000808483855afa5050505050565b600061013182610181565b61013b818561018c565b935061014b81856020860161019d565b610154816101d0565b840191505092915050565b600060208201905081810360008301526101798184610126565b905092915050565b600081519050919050565b600082825260208201905092915050565b60005b838110156101bb5780820151818401526020810190506101a0565b838111156101ca576000848401525b50505050565b6000601f19601f8301169050919050565b610935806101f06000396000f3fe608060405234801561001057600080fd5b50600436106100415760003560e01c806354ab494a146100465780637225b63514610064578063bbe9e39b14610080575b600080fd5b61004e61009e565b60405161005b919061079d565b60405180910390f35b61007e6004803603810190610079919061057f565b6100aa565b005b6100886101ed565b6040516100959190610729565b60405180910390f35b60008080549050905090565b6000604051806040016040528084848080601f016020809104026020016040519081016040528093929190818152602001838380828437600081840152601f19601f8201169050808301925050505050505081526020013373ffffffffffffffffffffffffffffffffffffffff1681525090806001815401808255809150506001900390600052602060002090600202016000909190919091506000820151816000019080519060200190610160929190610492565b5060208201518160010160006101000a81548173ffffffffffffffffffffffffffffffffffffffff021916908373ffffffffffffffffffffffffffffffffffffffff16021790555050506101e96040518060400160405280600e81526020017f257320736179732068656c6c6f21000000000000000000000000000000000000815250336103cd565b5050565b60606000805480602002602001604051908101604052809291908181526020016000905b8282101561032b57838290600052602060002090600202016040518060400160405290816000820180546102449061088d565b80601f01602080910402602001604051908101604052809291908181526020018280546102709061088d565b80156102bd5780601f10610292576101008083540402835291602001916102bd565b820191906000526020600020905b8154815290600101906020018083116102a057829003601f168201915b505050505081526020016001820160009054906101000a900473ffffffffffffffffffffffffffffffffffffffff1673ffffffffffffffffffffffffffffffffffffffff1673ffffffffffffffffffffffffffffffffffffffff168152505081526020019060010190610211565b50505050905090565b6103ca81604051602401610348919061074b565b6040516020818303038152906040527f41304fac000000000000000000000000000000000000000000000000000000007bffffffffffffffffffffffffffffffffffffffffffffffffffffffff19166020820180517bffffffffffffffffffffffffffffffffffffffffffffffffffffffff8381831617835250505050610469565b50565b61046582826040516024016103e392919061076d565b6040516020818303038152906040527f319af333000000000000000000000000000000000000000000000000000000007bffffffffffffffffffffffffffffffffffffffffffffffffffffffff19166020820180517bffffffffffffffffffffffffffffffffffffffffffffffffffffffff8381831617835250505050610469565b5050565b60008151905060006a636f6e736f6c652e6c6f679050602083016000808483855afa5050505050565b82805461049e9061088d565b90600052602060002090601f0160209004810192826104c05760008555610507565b82601f106104d957805160ff1916838001178555610507565b82800160010185558215610507579182015b828111156105065782518255916020019190600101906104eb565b5b5090506105149190610518565b5090565b5b80821115610531576000816000905550600101610519565b5090565b60008083601f84011261054757600080fd5b8235905067ffffffffffffffff81111561056057600080fd5b60208301915083600182028301111561057857600080fd5b9250929050565b6000806020838503121561059257600080fd5b600083013567ffffffffffffffff8111156105ac57600080fd5b6105b885828601610535565b92509250509250929050565b60006105d083836106dd565b905092915050565b6105e18161081e565b82525050565b6105f08161081e565b82525050565b6000610601826107c8565b61060b81856107eb565b93508360208202850161061d856107b8565b8060005b85811015610659578484038952815161063a85826105c4565b9450610645836107de565b925060208a01995050600181019050610621565b50829750879550505050505092915050565b6000610676826107d3565b61068081856107fc565b935061069081856020860161085a565b610699816108ee565b840191505092915050565b60006106af826107d3565b6106b9818561080d565b93506106c981856020860161085a565b6106d2816108ee565b840191505092915050565b600060408301600083015184820360008601526106fa828261066b565b915050602083015161070f60208601826105d8565b508091505092915050565b61072381610850565b82525050565b6000602082019050818103600083015261074381846105f6565b905092915050565b6000602082019050818103600083015261076581846106a4565b905092915050565b6000604082019050818103600083015261078781856106a4565b905061079660208301846105e7565b9392505050565b60006020820190506107b2600083018461071a565b92915050565b6000819050602082019050919050565b600081519050919050565b600081519050919050565b6000602082019050919050565b600082825260208201905092915050565b600082825260208201905092915050565b600082825260208201905092915050565b600061082982610830565b9050919050565b600073ffffffffffffffffffffffffffffffffffffffff82169050919050565b6000819050919050565b60005b8381101561087857808201518184015260208101905061085d565b83811115610887576000848401525b50505050565b600060028204905060018216806108a557607f821691505b602082108114156108b9576108b86108bf565b5b50919050565b7f4e487b7100000000000000000000000000000000000000000000000000000000600052602260045260246000fd5b6000601f19601f830116905091905056fea2646970667358221220d0f8a9de07cfc1c5637711fca71ebec125ab0eeeea66bd78274b5793a67bd60264736f6c63430008040033",
  "linkReferences": {},
  "deployedLinkReferences": {}
}