{
  "_format": "hh-sol-artifact-1",
  "contractName": "WavePortal",
  "sourceName": "contracts/WavePortal.sol",
  "abi": [
    {
      "inputs": [],
      "stateMutability": "payable",
      "type": "constructor"
    },
    {
      "anonymous": false,
      "inputs": [
        {
          "indexed": true,
          "internalType": "address",
          "name": "from",
          "type": "address"
        },
        {
          "indexed": false,
          "internalType": "uint256",
          "name": "timestamp",
          "type": "uint256"
        },
        {
          "indexed": false,
          "internalType": "string",
          "name": "message",
          "type": "string"
        }
      ],
      "name": "NewMessage",
      "type": "event"
    },
    {
      "anonymous": false,
      "inputs": [
        {
          "indexed": true,
          "internalType": "address",
          "name": "from",
          "type": "address"
        },
        {
          "indexed": false,
          "internalType": "uint256",
          "name": "timestamp",
          "type": "uint256"
        }
      ],
      "name": "NewPrize",
      "type": "event"
    },
    {
      "inputs": [
        {
          "internalType": "string",
          "name": "_message",
          "type": "string"
        }
      ],
      "name": "createInput",
      "outputs": [],
      "stateMutability": "nonpayable",
      "type": "function"
    },
    {
      "inputs": [],
      "name": "getInputs",
      "outputs": [
        {
          "components": [
            {
              "internalType": "string",
              "name": "text",
              "type": "string"
            },
            {
              "internalType": "address",
              "name": "sender",
              "type": "address"
            }
          ],
          "internalType": "struct WavePortal.Input[]",
          "name": "",
          "type": "tuple[]"
        }
      ],
      "stateMutability": "view",
      "type": "function"
    },
    {
      "inputs": [],
      "name": "getTotalInputs",
      "outputs": [
        {
          "internalType": "uint256",
          "name": "",
          "type": "uint256"
        }
      ],
      "stateMutability": "view",
      "type": "function"
    },
    {
      "inputs": [
        {
          "internalType": "address",
          "name": "",
          "type": "address"
        }
      ],
      "name": "uniqueMessagesRegistry",
      "outputs": [
        {
          "internalType": "bool",
          "name": "",
          "type": "bool"
        }
      ],
      "stateMutability": "view",
      "type": "function"
    }
  ],
  "bytecode": "0x6080604052600a600355655af3107a4000600455606444426200002391906200003b565b6200002f9190620000a2565b60028190555062000138565b6000620000488262000098565b9150620000558362000098565b9250827fffffffffffffffffffffffffffffffffffffffffffffffffffffffffffffffff038211156200008d576200008c620000da565b5b828201905092915050565b6000819050919050565b6000620000af8262000098565b9150620000bc8362000098565b925082620000cf57620000ce62000109565b5b828206905092915050565b7f4e487b7100000000000000000000000000000000000000000000000000000000600052601160045260246000fd5b7f4e487b7100000000000000000000000000000000000000000000000000000000600052601260045260246000fd5b610e0080620001486000396000f3fe608060405234801561001057600080fd5b506004361061004c5760003560e01c806354ab494a146100515780637225b6351461006f578063bbe9e39b1461008b578063fe671fec146100a9575b600080fd5b6100596100d9565b6040516100669190610a4a565b60405180910390f35b6100896004803603810190610084919061076e565b6100e5565b005b610093610367565b6040516100a091906109ad565b60405180910390f35b6100c360048036038101906100be9190610745565b6104ae565b6040516100d091906109cf565b60405180910390f35b60008080549050905090565b60011515600160003373ffffffffffffffffffffffffffffffffffffffff1673ffffffffffffffffffffffffffffffffffffffff16815260200190815260200160002060009054906101000a900460ff1615151415610179576040517f08c379a000000000000000000000000000000000000000000000000000000000815260040161017090610a2a565b60405180910390fd5b6000604051806040016040528084848080601f016020809104026020016040519081016040528093929190818152602001838380828437600081840152601f19601f8201169050808301925050505050505081526020013373ffffffffffffffffffffffffffffffffffffffff168152509080600181540180825580915050600190039060005260206000209060020201600090919091909150600082015181600001908051906020019061022f929190610643565b5060208201518160010160006101000a81548173ffffffffffffffffffffffffffffffffffffffff021916908373ffffffffffffffffffffffffffffffffffffffff160217905550505060018060003373ffffffffffffffffffffffffffffffffffffffff1673ffffffffffffffffffffffffffffffffffffffff16815260200190815260200160002060006101000a81548160ff021916908315150217905550606460025442446102e19190610b08565b6102eb9190610b08565b6102f59190610c1a565b6002819055506103036104ce565b15610311576103106104ff565b5b3373ffffffffffffffffffffffffffffffffffffffff167f0ff94fec3112de81726d79117e091c7c9d47da8a38c73e8cec7ee350a61898a642848460405161035b93929190610a65565b60405180910390a25050565b60606000805480602002602001604051908101604052809291908181526020016000905b828210156104a557838290600052602060002090600202016040518060400160405290816000820180546103be90610be8565b80601f01602080910402602001604051908101604052809291908181526020018280546103ea90610be8565b80156104375780601f1061040c57610100808354040283529160200191610437565b820191906000526020600020905b81548152906001019060200180831161041a57829003601f168201915b505050505081526020016001820160009054906101000a900473ffffffffffffffffffffffffffffffffffffffff1673ffffffffffffffffffffffffffffffffffffffff1673ffffffffffffffffffffffffffffffffffffffff16815250508152602001906001019061038b565b50505050905090565b60016020528060005260406000206000915054906101000a900460ff1681565b6000600354606460025442446104e49190610b08565b6104ee9190610b08565b6104f89190610c1a565b1115905090565b476004541115610544576040517f08c379a000000000000000000000000000000000000000000000000000000000815260040161053b906109ea565b60405180910390fd5b60003373ffffffffffffffffffffffffffffffffffffffff1660045460405161056c90610998565b60006040518083038185875af1925050503d80600081146105a9576040519150601f19603f3d011682016040523d82523d6000602084013e6105ae565b606091505b50509050806105f2576040517f08c379a00000000000000000000000000000000000000000000000000000000081526004016105e990610a0a565b60405180910390fd5b3373ffffffffffffffffffffffffffffffffffffffff167fac2a627160dd2c5870b8d451426b1f4988dafdceb5bf9108ff2cf9a7f5c55542426040516106389190610a4a565b60405180910390a250565b82805461064f90610be8565b90600052602060002090601f01602090048101928261067157600085556106b8565b82601f1061068a57805160ff19168380011785556106b8565b828001600101855582156106b8579182015b828111156106b757825182559160200191906001019061069c565b5b5090506106c591906106c9565b5090565b5b808211156106e25760008160009055506001016106ca565b5090565b6000813590506106f581610db3565b92915050565b60008083601f84011261070d57600080fd5b8235905067ffffffffffffffff81111561072657600080fd5b60208301915083600182028301111561073e57600080fd5b9250929050565b60006020828403121561075757600080fd5b6000610765848285016106e6565b91505092915050565b6000806020838503121561078157600080fd5b600083013567ffffffffffffffff81111561079b57600080fd5b6107a7858286016106fb565b92509250509250929050565b60006107bf838361094c565b905092915050565b6107d081610b5e565b82525050565b60006107e182610aa7565b6107eb8185610aca565b9350836020820285016107fd85610a97565b8060005b85811015610839578484038952815161081a85826107b3565b945061082583610abd565b925060208a01995050600181019050610801565b50829750879550505050505092915050565b61085481610b70565b82525050565b60006108668385610af7565b9350610873838584610ba6565b61087c83610cd8565b840190509392505050565b600061089282610ab2565b61089c8185610ae6565b93506108ac818560208601610bb5565b6108b581610cd8565b840191505092915050565b60006108cd603483610af7565b91506108d882610ce9565b604082019050919050565b60006108f0602783610af7565b91506108fb82610d38565b604082019050919050565b6000610913601883610af7565b915061091e82610d87565b602082019050919050565b6000610936600083610adb565b915061094182610db0565b600082019050919050565b600060408301600083015184820360008601526109698282610887565b915050602083015161097e60208601826107c7565b508091505092915050565b61099281610b9c565b82525050565b60006109a382610929565b9150819050919050565b600060208201905081810360008301526109c781846107d6565b905092915050565b60006020820190506109e4600083018461084b565b92915050565b60006020820190508181036000830152610a03816108c0565b9050919050565b60006020820190508181036000830152610a23816108e3565b9050919050565b60006020820190508181036000830152610a4381610906565b9050919050565b6000602082019050610a5f6000830184610989565b92915050565b6000604082019050610a7a6000830186610989565b8181036020830152610a8d81848661085a565b9050949350505050565b6000819050602082019050919050565b600081519050919050565b600081519050919050565b6000602082019050919050565b600082825260208201905092915050565b600081905092915050565b600082825260208201905092915050565b600082825260208201905092915050565b6000610b1382610b9c565b9150610b1e83610b9c565b9250827fffffffffffffffffffffffffffffffffffffffffffffffffffffffffffffffff03821115610b5357610b52610c4b565b5b828201905092915050565b6000610b6982610b7c565b9050919050565b60008115159050919050565b600073ffffffffffffffffffffffffffffffffffffffff82169050919050565b6000819050919050565b82818337600083830152505050565b60005b83811015610bd3578082015181840152602081019050610bb8565b83811115610be2576000848401525b50505050565b60006002820490506001821680610c0057607f821691505b60208210811415610c1457610c13610ca9565b5b50919050565b6000610c2582610b9c565b9150610c3083610b9c565b925082610c4057610c3f610c7a565b5b828206905092915050565b7f4e487b7100000000000000000000000000000000000000000000000000000000600052601160045260246000fd5b7f4e487b7100000000000000000000000000000000000000000000000000000000600052601260045260246000fd5b7f4e487b7100000000000000000000000000000000000000000000000000000000600052602260045260246000fd5b6000601f19601f8301169050919050565b7f547279696e6720746f207769746864726177206d6f7265206d6f6e657920746860008201527f616e2074686520636f6e7472616374206861732e000000000000000000000000602082015250565b7f4661696c656420746f207769746864726177206d6f6e65792066726f6d20636f60008201527f6e74726163742e00000000000000000000000000000000000000000000000000602082015250565b7f416c72656164792073656e7420746865206d6573736167650000000000000000600082015250565b50565b610dbc81610b5e565b8114610dc757600080fd5b5056fea2646970667358221220541aabf7f6ff169169112cbd1e34ecca58dccc77036c0537f2cde2a4403a325e64736f6c63430008040033",
  "linkReferences": {},
  "deployedLinkReferences": {}
}